:03000000020040BB
:10004000114C12000312006A80F880FE85608185E1
:100050000030C2D3C2D47B01EBFAC2D3D2D4ABFA04
:0A006000EBFAC2D3C2D475A000224F
:10006A00C030C0317530087531C0D531FDD530FA90
:10007A00D031D03022C030C0317531D775302DD54E
:0A008A0030FDD531F7D031D030221F
:10000300E590540764076034117FE5905407640753
:10001300602A759000B53000F530B40106C2D3C232
:10002300D4800FB40206C2D3D2D48006D2D3C2D4B2
:0D0033008000E5905407640770F8117F22EB
:00000001FF
