:030000000200B645
:03000B000200866A
:1000B6001200CC12000E1200EAD531F77531FA1291
:1000C600011480EF80FE7581607530017531FA7517
:1000D600A0007B017A01C2007C147D007E037F03B1
:0400E600120078226A
:1000EA00C030C0317530087531C0D531FDD530FA10
:1000FA00D031D03022C030C0317531D775302DD5CE
:0A010A0030FDD531F7D031D030229E
:10007800758901758CFF758A48D2A9D2AF22C0E074
:10008800C0D0758CFF758A48ECB50502C2A0DC1992
:100098007C14D2A0DE13AE07BD1402D201BD00024B
:0E00A800C2012001030D80011DD0D0D0E03236
:10000E00E59054076407606111FFE590540764079B
:10001E00605775A000C28CB53021B40108EB23FBEC
:10002E007531FA803AB40209B2008AA07531FA80AD
:10003E002ED28CBF10027F030F8024F530C28CB4F9
:10004E0001078BA07531FA8016C28CB402078AA004
:10005E007531FA800AD28C7C147D00D28C8000E53A
:0A006E00905407640770F811FF2298
:10011400E530B40105EB62A08014B402112000079D
:0F012400EA23FAF5A08007EA03FAF5A08000228B
:00000001FF
